:100000000C9427010C944F010C944F010C944F0158
:100010000C944F010C944F010C944F010C944F0120
:100020000C944F010C944F010C94A2030C941404F3
:100030000C944F010C944F010C944F010C944F0100
:100040000C944F010C94DF090C944F010C944F0158
:100050000C944F010C944F010C944F010C945803D5
:100060000C944F010C944F010C944F010C944F01D0
:100070000C944F010C944F010C944F010C944F01C0
:100080000C944F010C944F010C944F010C944F01B0
:100090000C943E0D0C944F010C944F010C944F01A5
:1000A0000C944F010C944F010C944F0134113711F3
:1000B00026112A112E115811581158113B113F11B8
:1000C000431149114D1158115311084AD73B3BCEEA
:1000D000016E84BCBFFDC12F3D6C74319ABD568347
:1000E0003DDA3D00C77F11BED9E4BB4C3E916BAAFF
:1000F000AABE000000803F00080B000202020100BF
:10010000090400000102020000052400100105247A
:1001100001010104240206052406000107058103EC
:1001200010004009040100020A0000000705020255
:1001300040000007058302400000040309044172E7
:100140006475696E6F204C4C430041726475696E32
:100150006F204D6963726F001201000200000040C1
:100160004123370000010102030112010002EF02E6
:100170000140412337000001010203014572726F03
:10018000722072656164696E672073656E736F7249
:1001900000000000002300260029002C002F006929
:1001A0003263526561642074696D656F75740069AE
:1001B000326352656164206661696C65643A20004F
:1001C00000000000240027002A002D00300000005D
:1001D0000000250028002B002E0031000404040438
:1001E00004030405020202020403020202020606DC
:1001F00006060606040402020204040408020110B2
:10020000408040102040804080080204018040204F
:100210001002011080102040402000000002000960
:100220000F0000030401000C0000000000000000AB
:10023000000000000000000000693263577269741A
:1002400065206661696C65643A2000009517112489
:100250001FBECFEFDAE0DEBFCDBF23E0A8E4B1E000
:1002600001C01D92AE3FB207E1F711E0A0E0B1E09E
:10027000E6E3F8E302C005900D92A834B107D9F780
:1002800011E0C7E2D1E004C02197FE010E9474187A
:10029000C632D107C9F70E9407120C94191C0C949E
:1002A000000040914D0150914E0120914B01309141
:1002B0004C0142175307B4F49091E8009570E1F3B4
:1002C0009091E80092FD19C08093F10080914D015A
:1002D00090914E0101968F739927892B19F48EEF17
:1002E0008093E80080914D0190914E01019690938A
:1002F0004E0180934D0181E0089580E00895CF92F2
:10030000DF92EF92FF920F931F93CF93DF931F9291
:10031000CDB7DEB7182F062FE42E862F880F8E5FFD
:1003200099830E94510183E00E945101F12EC12E58
:100330009981D92E8C2D8F19801798F4F601E7FE3C
:1003400002C0849101C080810E945101182F80E079
:100350000E9451018123FFEFCF1ADF0A8111EACFFA
:1003600001C081E00F90DF91CF911F910F91FF901D
:10037000EF90DF90CF900895DF92EF92FF920F936E
:100380001F93CF93DF93D82E8A017B01E40EF51ED5
:10039000EB01CE15DF0571F0D7FE03C0FE0184919D
:1003A00001C088810E94510121968111F2CF8FEF07
:1003B0009FEF01C0C801DF91CF911F910F91FF9076
:1003C000EF90DF900895615030F02091F100FC0132
:1003D00020830196F8CF289A84E680939E010895A1
:1003E000CF92DF92EF92FF920F931F93CF93DF9301
:1003F0006C017A018B01C0E0D0E0CE15DF0589F0F9
:10040000D8016D918D01D601ED91FC910190F081A3
:10041000E02DC6010995892B11F47E0102C02196B9
:10042000ECCFC701DF91CF911F910F91FF90EF901B
:10043000DF90CF900895CF93DF931F92CDB7DEB7B3
:100440006983DC01ED91FC910280F381E02D41E0B4
:1004500050E0BE016F5F7F4F09950F90DF91CF9104
:10046000089583E08093E9008091F200882319F0D9
:100470008AE38093E8000895FC018485958597FDC3
:100480000BC09FB7F89482E08093E9008091F2005E
:100490009FBF90E0019608959FB7F89482E0809303
:1004A000E9008091F2009FBF90E008958F929F92A3
:1004B000AF92BF92CF92DF92EF92FF920F931F9372
:1004C000CF93DF935C016B018A0180910B0188233C
:1004D00009F45EC080919F01882309F459C080917E
:1004E000510180FF05C08091E00082608093E000B0
:1004F000E8018AEFF82E93E0E92E2FE3822E3AE30B
:10050000932E209709F43DC08FB7F894E092E9004C
:100510009091E80095FF06C09091F200282D291BCC
:10052000922F01C090E08FBF91110AC0FA94FF2072
:1005300079F161E070E080E090E00E94CD11E1CFC0
:10054000292F30E0C217D3070CF49C2F8FB7F894F3
:10055000E092E9002091E80025FF11C0292F30E04A
:10056000C21BD30BF601915020F041914093F10052
:10057000FACFC20ED31E9091E80095FF13C08FBF33
:10058000C0CF5D9A84E680934F011016110644F0A7
:1005900081E090E0F5019383828380E090E005C0E4
:1005A000C80103C09092E800EACFDF91CF911F917C
:1005B0000F91FF90EF90DF90CF90BF90AF909F9002
:1005C0008F9008950E94C41B0F931F93CF93DF93C6
:1005D0001F92CDB7DEB782E0898342E450E068EF36
:1005E00070E080E80E94BC010E94F510DC011296C8
:1005F0000D911C9113970115110569F0D801ED912A
:10060000FC910280F381E02DBE016F5F7F4FC80136
:10061000099597FF07C089810F90DF91CF911F91B6
:100620000F910895F80100851185E5CF0F931F9371
:10063000CF93DF931F92CDB7DEB78C01FC01848589
:10064000958597FF0EC0CE0101960E94240901975F
:1006500019F4298130E002C02FEF3FEFF801358710
:100660002487F801848595850F90DF91CF911F91A4
:100670000F910895CF93DF931F92CDB7DEB7FC01A2
:100680008485958597FD05C02FEF3FEF358724873B
:100690000BC0CE0101960E942409019719F48981AB
:1006A00090E002C08FEF9FEF0F90DF91CF91089500
:1006B0001F920F920FB60F9211242F933F938F9397
:1006C0009F93AF93BF938091A7039091A803A091AC
:1006D000A903B091AA0330919D0123E0230F2D3788
:1006E00020F40196A11DB11D05C026E8230F029636
:1006F000A11DB11D20939D018093A7039093A80392
:10070000A093A903B093AA038091A3039091A4039B
:10071000A091A503B091A6030196A11DB11D8093E0
:10072000A3039093A403A093A503B093A603BF9142
:10073000AF919F918F913F912F910F900FBE0F908E
:100740001F9018951F920F920FB60F9211248F933E
:100750009F938091E1009091E100937F9093E1005D
:1007600083FF0FC01092E90091E09093EB0010928C
:10077000EC0092E39093ED0010929F0198E090932B
:10078000F00082FF20C093E09093E9009091F20086
:10079000992319F09AE39093E80090914F019923DF
:1007A00039F090914F01915090934F01992389F125
:1007B00090919E01992339F090919E0191509093D0
:1007C0009E01992341F184FF10C08091E2008E7E4A
:1007D00081608093E2008091E1008F7E8093E10050
:1007E000809151018E7E806111C080FF16C0809182
:1007F000E2008E7E80618093E2008091E1008E7E37
:100800008093E100809151018E7E8160809351013F
:1008100004C05D98CDCF2898D6CF9F918F910F902F
:100820000FBE0F901F9018951F920F920FB60F9248
:100830001124CF92DF92EF92FF920F931F932F9389
:100840003F934F935F936F937F938F939F93AF9358
:10085000BF93EF93FF93CF93DF93CDB7DEB76C9742
:10086000DEBFCDBF1092E9008091E80083FFFAC19E
:1008700068E0CE0145960E94E30182EF8093E80094
:100880008D8987FF05C09091E80090FFFCCF03C0E1
:100890009EEF9093E800982F907609F0C6C09E894D
:1008A0002F89188D91110CC0803829F48091520144
:1008B0008093F10002C01092F1001092F10047C144
:1008C000422F50E0512B913051F4811140C1413001
:1008D000510509F03CC1809152018D7F0BC09330CE
:1008E00061F4811134C14130510509F030C180916A
:1008F00052018260809352012AC1953041F4809167
:10090000E80080FFFCCF20682093E30020C19630F0
:1009100009F05FC0EB8CFC8C1092E90010924E0144
:1009200010924D01123091F510924C0110924B0132
:100930000E94E40299E0BE016F5F7F4FDB01E92F67
:100940001D92EA95E9F799831A8391E09E8390EAD4
:1009500098879AEF998720914D0130914E01275F3A
:100960003F4F3C832B838D831092E90010924E0100
:1009700010924D01F0924C01E0924B0149E050E0A1
:1009800080E00E94BC010E94E402E1C0F0924C01B0
:10099000E0924B010E94F510DC011296ED90FC9064
:1009A0001397E114F10409F4C0C0D701ED91FC9153
:1009B0000480F581E02DBE016B5E7F4FC701099574
:1009C000009719F00CF0C3C0C6C0F701E084F184B1
:1009D000E8CF973009F4BFC0983021F481E08093CC
:1009E000F100B5C0993009F0B2C0837009F0B3C00E
:1009F000E1E1F1E081E021E036E39081992361F0CB
:100A00008093E9002093EB0091919093EC00309358
:100A1000ED008F5F873089F78EE78093EA001092B0
:100A2000EA008F8980939F0192C08B8D9C8D1092DC
:100A3000E90010924E0110924D0190934C01809369
:100A40004B01898D811156C08E899D89913A59F447
:100A5000813209F080C047E050E064E071E080E05E
:100A60000E94BC0174C0913209F075C0833289F4D0
:100A7000888D90E0982F88272F89822BA0E0B0E006
:100A80008093000190930101A0930201B0930301B0
:100A90005EC0803269F48091E80082FFFCCF67E09D
:100AA00084E091E00E94E3018BEF8093E80006C0B0
:100AB000823209F04CC08F8980930B0180915001E4
:100AC000882319F0EEEFFAE002C0E0E0F8E0809150
:100AD000040190910501A0910601B0910701803BAE
:100AE0009440A105B10509F088C080910B0180FFF9
:100AF000A0C083C00E94F510DC0112960D911C91DC
:100B000013970115110539F1D801ED91FC91019070
:100B1000F081E02DBE016B5E7F4FC8010995811108
:100B200016C0F80100851185ECCF1130C1F01330EB
:100B300091F48F89882309F455C08230E9F440E8A4
:100B40006DE08AE491E00E947F01882321F08EEF1E
:100B50008093E80087C081E28093EB0083C08B8D97
:100B60009C8D089711F410934A0180914A018111DC
:100B700036C068E571E038C0813029F440E86BE0A8
:100B80008EE391E0E0CF833031F70E94F510DC0175
:100B90001296ED90FC9013978E010F5F1F4F680126
:100BA000E114F10479F0D701ED91FC910680F78111
:100BB000E02DB801C7010995080F111DF701E08468
:100BC000F184EECFD8011C92F60101900020E9F7E4
:100BD0003197BF016C197D0940E0C601B4CF6AE6C8
:100BE00071E002C06AE371E06115710509F4B3CFE9
:100BF000FB01449150E080E833CF0FB6F894A895FC
:100C000080916000886180936000109260000FBE48
:100C1000A895EE3F2AE0F20739F08091FE0A909104
:100C2000FF0A9183808393CF1092FF0A1092FE0AED
:100C30008ECFEE3F8AE0F80731F08081918190936A
:100C4000FF0A8093FE0A87E797E7918380839BE002
:100C500088E10FB6F894A895809360000FBE90933A
:100C6000600075CF6C960FB6F894DEBF0FBECDBF97
:100C7000DF91CF91FF91EF91BF91AF919F918F91B4
:100C80007F916F915F914F913F912F911F910F91A4
:100C9000FF90EF90DF90CF900F900FBE0F901F90BE
:100CA0001895FC0190917E039C30A0F481E0890F9F
:100CB00080937E039083892F90E0FC01EE0FFF1F4D
:100CC0008E0F9F1FFC01E158FC4F88EB9BE0928345
:100CD000818308958FEF80830895382F20911A0221
:100CE00090911902213208F049C08091F6018111DA
:100CF000FCCF42E04093F6013093F5013FEF309393
:100D0000F4011092F3012093F201A9EFB1E042ED5A
:100D100051E0FA013E2F341B321718F43D91319304
:100D2000F9CF1092D1012091D101990F922B90937C
:100D3000D1019091D001913061F41092D001909145
:100D4000D1019093BB009091BC0093FDF8CF95EC3E
:100D500001C095EE9093BC009091F6019230E1F3C2
:100D60009091F4019F3F79F08091F401803241F03D
:100D70008091F401803331F084E005C081E003C04C
:100D800082E001C083E01092F80110921A021092E2
:100D9000F7010895BC01009791F0FC01019000203B
:100DA000E9F73197AF01481B590BE0912702F09109
:100DB00028020280F381E02D87E292E0099480E02E
:100DC00090E008950F931F93CF93DF938C01C0E0C1
:100DD000D0E0F801EC0FFD1F6491662371F0E09103
:100DE0002702F09128020190F081E02D87E292E045
:100DF0000995892B11F02196ECCFCE01DF91CF918F
:100E00001F910F9108958F929F92AF92BF920F936F
:100E10001F93CF93DF93CDB7DEB7A1970FB6F894AA
:100E2000DEBF0FBECDBF19A2423008F44AE08E01EA
:100E30000F5D1F4F842E912CA12CB12CA501940184
:100E40000E94E81BE62FB901CA0101501109EA30DE
:100E500014F4E05D01C0E95CD801EC93232B242B52
:100E6000252B61F7C8010E94CA06A1960FB6F89417
:100E7000DEBF0FBECDBFDF91CF911F910F91BF900D
:100E8000AF909F908F900895CF92DF92EF92FF9254
:100E90000F931F93CF93DF93F62E91E09093F7017A
:100EA00098E6909319021092F80110921A02682F96
:100EB0008BE192E00E94CF0C80E00E946D06C82F6B
:100EC000882381F08FEA91E00E94E2066C2F70E0A7
:100ED00080E090E04AE00E94030789E391E00E94ED
:100EE000CA0679C0C091F601C111FCCFDF2D20E206
:100EF0002F1508F4D0E281E08093F6018093F5018C
:100F00009FEF9093F4011092F3019D0F9093F201E3
:100F10008093D1018091D101806D8093D101809126
:100F2000D001813061F41092D0018091D101809381
:100F3000BB008091BC0083FDF8CF85EC01C085EE3D
:100F40008093BC008091F6018130E1F38091F30140
:100F50008D1710F4D091F301A2EDB1E020EA31E059
:100F6000F9018E2F821B8D1718F48D918193F9CF83
:100F70001092C001D093C10182ECC82E81E0D82E1E
:100F80008601802F8C198F1530F58091C001D817FC
:100F900041F08BE192E00E94830CF80181938F0174
:100FA000F0CF0E94A8116B017C010E94A811DC0106
:100FB000CB018C199D09AE09BF09883E9340A1055C
:100FC000B10598F38FE991E00E94E20689E391E090
:100FD0000E94CA06C5E08C2FDF91CF911F910F911F
:100FE000FF90EF90DF90CF9008958F929F92AF92F5
:100FF000BF92CF92DF92EF92FF92CF93DF93EC01FB
:1010000088AD811130C0EC8DFD8DC080D180E28033
:10101000F380CCA2DDA2EEA2FFA2EA8DFB8D80813F
:101020009181A281B38188A799A7AAA7BBA78CA801
:101030009DA8AEA8BFA8A5019401C701B6010E9452
:10104000E61A181664F088A899A8AAA8BBA8A50152
:101050009401C701B6010E94601987FF04C08CA2E9
:101060009DA2AEA2BFA281E088AFDF91CF91FF9099
:10107000EF90DF90CF90BF90AF909F908F900895AA
:101080004F925F926F927F928F929F92AF92BF9298
:10109000CF92DF92EF92FF926B017C01B42E9B0105
:1010A000AC010E94AA1B882319F08CE391E027C0B1
:1010B00026013701E89477F82FEF3FEF4FE75FE71E
:1010C000C301B2010E94AA1B81110DC02FEF3FEF97
:1010D0004FE75FE7C301B2010E94601918161CF4C4
:1010E00080E491E00CC02FEF3FEF4FE75FE4C701D2
:1010F000B6010E94E61A181684F484E491E0FF9089
:10110000EF90DF90CF90BF90AF909F908F907F90A7
:101110006F905F904F900C94CA062FEF3FEF4FE710
:101120005FECC701B6010E94601987FDE6CF20E0A1
:1011300030E0A901C701B6010E94601987FF11C004
:10114000E0912702F09128020190F081E02D6DE2FC
:1011500087E292E009954C01F7FAF094F7F8F094E1
:1011600002C0812C912CA12C60E070E080E09FE314
:10117000AB1441F020E030E040E251E40E946519F8
:10118000A394F6CF9B01AC01C701B6010E9482185F
:101190002B013C010E94DE196B017C010E940D1A9B
:1011A0009B01AC01C301B2010E9481182B013C01DB
:1011B0004AE0C701B6010E9403077C01E80CF91C54
:1011C000BB2069F0E0912702F09128020190F081A4
:1011D000E02D6EE287E292E00995E80EF91EDB2C25
:1011E000DD2021F120E030E040E251E4C301B20112
:1011F0000E94F31A2B013C010E94DE194B01A12C25
:10120000B12C4AE0C501B4010E940307E80EF91EA3
:10121000C501B4010E940D1A9B01AC01C301B201CA
:101220000E9481182B013C01DA94DACFC701FF90AC
:10123000EF90DF90CF90BF90AF909F908F907F9076
:101240006F905F904F900895FC0180919F018111F4
:1012500003C08FEF9FEF08959FB7F89482E08093CB
:10126000E9002091F20030E01216130614F421E098
:1012700030E02115310559F0289A84E680939E01CB
:101280008091F10080838091F200882319F09FBF44
:10129000C90108958BE68093E800F9CFFC019081A5
:1012A0009C3080F5818128E830E0281B310987FDDA
:1012B0003395220F331F220F331F621773077CF001
:1012C000828128E532E0281B310987FD3395220F02
:1012D000331F220F331F621773070CF49B014FB7A4
:1012E000F894892F90E0FC01EE0FFF1F8E0F9F1FD7
:1012F000FC01E158FC4F22503109220F331F328389
:1013000021834FBF08951F93CF93DF93EC01162FD6
:1013100088818C3008F04EC061E0812F0E946C11F2
:101320008881E82FF0E09F01220F331FE20FF31FA7
:10133000E158FC4F1F739081907C192B1083198208
:101340001A826CE00E9468189CE0899FB001112409
:1013500040E050E09A01260F371FF901EE0FFF1F02
:101360002E0F3F1FF901E158FC4F908196FD16C0EA
:101370004F5F5F4F4C30510569F781110FC01092DC
:10138000800082E08093810010928500109284009A
:10139000B19A80916F00826080936F00E881F0E0E5
:1013A000CF01880F991FE80FF91FE158FC4F80818A
:1013B000806480838881DF91CF911F9108951F926F
:1013C0000F920FB60F9211242F933F934F935F9379
:1013D0006F937F938F939F93AF93BF93EF93FF93FD
:1013E00080917D0387FF05C01092850010928400D4
:1013F0001BC020917D03022E000C330B80917E03D5
:1014000090E02817390784F480917D03082E000CA2
:10141000990BFC01EE0FFF1F8E0F9F1FFC01E1587F
:10142000FC4F808186FD15C080917D038F5F809386
:101430007D0320917D03022E000C330B80917E03EF
:1014400090E028173907C4F480917D038C3064F153
:1014500013C080917D03082E000C990BFC01EE0F48
:10146000FF1F8E0F9F1FFC01E158FC4F808160E041
:101470008F730E940911D8CF8091840090918500CC
:1014800004968031974218F480E197E205C080917C
:101490008400909185000496909389008093880041
:1014A0008FEF80937D033BC02091840030918500B5
:1014B00080917D03082E000C990BFC01EE0FFF1F9D
:1014C0008E0F9F1FFC01E158FC4F81819281820F9A
:1014D000931F909389008093880080917D03082E4C
:1014E000000C990BFC01EE0FFF1F8E0F9F1FFC01DC
:1014F000E158FC4F808186FF12C080917D03082E49
:10150000000C990BFC01EE0FFF1F8E0F9F1FFC01BB
:10151000E158FC4F808161E08F730E940911FF91B7
:10152000EF91BF91AF919F918F917F916F915F915B
:101530004F913F912F910F900FBE0F901F901895D4
:101540002F923F924F925F926F927F928F929F92D3
:10155000AF92BF92CF92DF92EF92FF920F931F93C1
:10156000CF93DF93CDB7DEB76C970FB6F894DEBF9D
:101570000FBECDBF1C014D8B5E8B6F8B788FC90169
:10158000B801D10150962D913D914D915C915397A9
:10159000298B3A8B4B8B5C8B0E9481189B01AC0191
:1015A000F101648B758B868B978BC701B6010E9406
:1015B000F31AD1011C962D913D914D915C911F978D
:1015C0000E9482186D877E878F87988BD1019496B1
:1015D0002D913D914D915C91979729833A834B834F
:1015E0005C83C701B6010E94F31A4B015C01D10173
:1015F0005C962D913D914D915C915F972D833E833B
:101600004F83588790962D913D914D915C91939782
:1016100029873A874B875C872D813E814F8158858A
:101620000E94811829853A854B855C850E94811826
:10163000F10120813181428153810E9482189B01F6
:10164000AC01C701B6010E94F31AD10158962D9141
:101650003D914D915C915B970E9482182B013C015A
:10166000A50194016D817E818F8198850E948118EA
:101670006D837E838F839887A501940169857A8520
:101680008B859C850E94811869877A878B879C87C8
:10169000F1012481358146815781C701B6010E943D
:1016A000F31A9B01AC0169817A818B819C810E9434
:1016B0008218698F7A8F8B8F9C8FD10118962D910C
:1016C0003D914D915C911B97C301B2010E9482181C
:1016D0006B017C01F10164AB75AB86AB97AB9B01F1
:1016E000AC01C301B2010E9465194B015C01D1013B
:1016F00098966D937D938D939C939B97A7019601EC
:1017000069857A858B859C850E9465196B017C01B2
:10171000F10164A775A786A797A72D853E854F85FC
:1017200058896D897E898F89988D0E948118698377
:101730007A838B839C83D101D0966D937D938D9317
:101740009C93D3979B01AC01C501B4010E94F31A8D
:101750009B01AC016D857E858F8598890E948218DA
:101760006D877E878F87988BF10164877587868761
:10177000978729813A814B815C81C701B6010E941C
:10178000F31A9B01AC0169897A898B899C890E9433
:101790008218D10150966D937D938D939C935397AE
:1017A000A3019201C501B4010E94F31A9B01AC018F
:1017B000C301B2010E9481182B013C01F101608F2D
:1017C000718F828F938F2D813E814F815885C50106
:1017D000B4010E94F31A9B01AC016D817E818F815F
:1017E00098850E9481184B015C01D1015C966D9334
:1017F0007D938D939C935F97A3019201C701B601DE
:101800000E94F31A9B01AC0169857A858B859C85C2
:101810000E948118F10160A371A382A393A3A50183
:101820009401C701B6010E94F31A9B01AC01698DB6
:101830007A8D8B8D9C8D0E948118D10194966D9329
:101840007D938D939C9397976D857E858F859889E1
:101850006C960FB6F894DEBF0FBECDBFDF91CF916F
:101860001F910F91FF90EF90DF90CF90BF90AF90BE
:101870009F908F907F906F905F904F903F902F90B0
:10188000089585ED8093BC008091BC0084FDFCCF61
:101890001092F60108954091D903262F30E0240FCD
:1018A000311D21323105DCF42091F6012430C9F4D8
:1018B000FC0180E090E0861758F43091D903219123
:1018C000DC01A954BC4FA30FB11D2C930196F3CF9B
:1018D0008091D903680F6093D90380E0089581E077
:1018E000089582E008950895E091C0018091C101BA
:1018F000E81730F4F0E0E056FE4F808190E0089564
:101900008FEF9FEF08959091C0018091C1019817CA
:1019100050F4E92FF0E0E056FE4F208130E09F5F69
:101920009093C00102C02FEF3FEFC901089580914D
:10193000C10190E02091C001821B91090895CF92CE
:10194000DF92EF92FF920F931F93CF93DF937C016F
:10195000262F972F8A018091F701882391F0C62FB7
:10196000D72F6E01C40ED51ECC15DD0571F069911F
:10197000D701ED91FC910190F081E02DC70109950F
:10198000F3CF642F822F0E944B0CC801DF91CF91BF
:101990001F910F91FF90EF90DF90CF900895CF931C
:1019A000DF931F92CDB7DEB769832091F701222321
:1019B000D1F020911A02203240F021E030E0FC0109
:1019C0003383228380E090E015C08091F801E82FF6
:1019D000F0E0E750FE4F998190838F5F8093F8018C
:1019E00080931A0205C061E0CE0101960E944B0C63
:1019F00081E090E00F90DF91CF9108950F931F93B6
:101A0000CF93DF9300D0CDB7DEB78B0191E09093F9
:101A1000F70198E6909319021092F80110921A02B9
:101A2000682F8BE192E02A8349830E94CF0C498181
:101A300050E0B8018BE192E00E949F0C2A81822F36
:101A40000E946D06182F882389F089E392E00E9496
:101A5000E206812F90E0A0E0B0E04AE0BC01CD01B9
:101A60000E94030789E391E00E94CA06812F0F902C
:101A70000F90DF91CF911F910F9108951F920F92B8
:101A80000FB60F9211242F933F934F935F936F9351
:101A90007F938F939F93AF93BF93EF93FF93809127
:101AA000B900887F803609F49CC068F5883209F453
:101AB0005BC090F4803109F454C038F4882309F4F1
:101AC000F6C0883009F44DC0F6C0883109F44CC026
:101AD000803209F45DC0EFC0803409F468C048F476
:101AE000803309F455C0883309F0E5C08093F401D0
:101AF000D8C0803509F44FC0883509F45DC08834FA
:101B000009F0D9C0D6C0883909F4C7C0A8F488370D
:101B100009F467C038F4883609F463C0803709F4E3
:101B200060C0C9C0883809F4B8C0803909F45FC002
:101B3000803809F0C0C05BC0803B09F486C038F42F
:101B4000803A09F466C0883A09F47FC0B4C0803C8A
:101B500009F4A7C0883C09F4A4C0883B09F48AC0F2
:101B6000AAC08091D10110C09091F3018091F2013F
:101B7000981770F5E091F30181E08E0F8093F301E7
:101B8000F0E0EE52FE4F80818093BB0085EC86C072
:101B90008093F4018EC0E091F30181E08E0F809379
:101BA000F3018091BB00F0E0EE52FE4F80839091F4
:101BB000F3018091F2016EC0E091F30181E08E0F9C
:101BC0008093F3018091BB00F0E0EE52FE4F8083E2
:101BD0008091F50181116DC081E08093D00184EA8C
:101BE00061C083E08093F6011092FD03CFCF809116
:101BF000FD03803208F051C0E091FD0381E08E0FBB
:101C00008093FD038091BB00F0E0E352FC4F8083A2
:101C1000BDCF85EC8093BC001092F6018091FD034E
:101C2000803230F4E091FD03F0E0E352FC4F10828B
:101C30006091FD0370E0E091DB03F091DC038DED3A
:101C400093E009951092FD0336C084E08093F6017D
:101C50001092DA031092D903E091D703F091D803E0
:101C600009958091D903811105C081E08093D90342
:101C70001092B703E091DA0381E08E0F8093DA03CC
:101C8000F0E0E954FC4F80818093BB009091DA032F
:101C90008091D903981708F479CF85E88093BC0028
:101CA0000AC085EC8093BC001092F60104C010922B
:101CB000F4010E94410CFF91EF91BF91AF919F9170
:101CC0008F917F916F915F914F913F912F910F90E5
:101CD0000FBE0F901F9018952F923F924F925F92D8
:101CE0006F927F928F929F92AF92BF92CF92DF922C
:101CF000EF92FF920F931F93CF93DF93EC016A0152
:101D00007B0148015901A9019801C701B6010E9450
:101D1000E61A87FF4EC0C8AAD9AAEAAAFBAA8CAACB
:101D20009DAAAEAABFAA88AD882309F442C02C8C14
:101D30003D8CF1014080518062807380A501940147
:101D4000C301B2010E94E61A181634F4F101808230
:101D50009182A282B3820DC0A7019601C301B20194
:101D60000E94601987FF05C0F101C082D182E28222
:101D7000F3828CA09DA0AEA0BFA0CCA8DDA8EEA849
:101D8000FFA8A7019601C501B4010E94E61A181622
:101D900064F0C8A8D9A8EAA8FBA8A7019601C501C4
:101DA000B4010E94601987FF04C0CCA2DDA2EEA29C
:101DB000FFA2DF91CF911F910F91FF90EF90DF90E5
:101DC000CF90BF90AF909F908F907F906F905F90DB
:101DD0004F903F902F9008952F923F924F925F9295
:101DE0006F927F928F929F92AF92BF92DF92EF920B
:101DF000FF920F931F93CF93DF93CDB7DEB72C974E
:101E00000FB6F894DEBF0FBECDBF8C01DC01D896B3
:101E1000DC90D11002C0D12CE0C08FB7F894209193
:101E2000A7033091A8034091A9035091AA032987E1
:101E30003A874B875C878FBFF80180A191A1A2A14F
:101E4000B3A149855A856B857C85481B590B6A0B64
:101E50007B0B84A595A5A6A5B7A5481759076A07C2
:101E60007B07C8F21801D801028CF38DE02D408069
:101E70005180628073805E96ED91FC915F97A30123
:101E8000920160817181828193810E9481186983AE
:101E90007A838B839C83F801208931894289538915
:101EA0000E94F31AD80194962D913D914D915C9129
:101EB00097970E9482184B015C01F80164A375A3F7
:101EC00086A397A3E4A8F5A806A917A99701A801D6
:101ED0000E94E61A181644F4C701D801F10184A340
:101EE00095A3A6A3B7A31CC0D101D0962D913D9177
:101EF0004D915C91D3972D833E834F835887C501C5
:101F0000B4010E94601987FF0BC02D813E814F8173
:101F10005885D10194962D933D934D935C9397975B
:101F2000F101248535854685578569817A818B81C4
:101F30009C810E94F31AD10194962D913D914D916F
:101F40005C9197970E9482184B015C01F10120A5DA
:101F500031A542A553A5C301B2010E948118D10148
:101F600054962D913D914D915C9157970E94F31A93
:101F70009B01AC01C501B4010E9481184B015C01B9
:101F80009701A8010E94E61A18167CF0F101E0A85A
:101F9000F1A802A913A99701A801B401C5010E94E3
:101FA000601987FD02C074018501D1015C96ED9135
:101FB000FC915D97C701D80180839183A283B3838D
:101FC000F10140A651A662A673A629853A854B85E4
:101FD0005C8520A331A342A353A38D2D2C960FB66D
:101FE000F894DEBF0FBECDBFDF91CF911F910F914F
:101FF000FF90EF90DF90BF90AF909F908F907F9079
:102000006F905F904F903F902F9008954F925F9206
:102010006F927F928F929F92AF92BF92CF92DF92F8
:10202000EF92FF920F931F93CF93DF9300D000D0D6
:10203000CDB7DEB74C01270138010B8D1C8DDC01BB
:102040005D965C934E935C975B967C936E935A97E8
:102050005F963C932E935E97D8961C92FC0110AA33
:1020600011AA12AA13AA80E090E0AFE7B3E484AB10
:1020700095ABA6ABB7AB84E690E0A0E0B0E084A758
:1020800095A7A6A7B7A7118F008F20E030E0A90180
:10209000C301B2010E94601987FD7AC020E030E0E0
:1020A000A901C601B5010E94601987FD71C020E039
:1020B00030E0A9016F89788D898D9A8D0E94601911
:1020C00087FD66C0D4014D925D926D927C9213970C
:1020D000F401A482B582C682D7828F89988DA98D9A
:1020E000BA8D80879187A287B38744865586668696
:1020F00077862DEC3CEC4CEC5DE3C601B5010E940B
:10210000F31A69837A838B839C83F401608B718BD0
:10211000828B938B2DEC3CEC4CEC5DE36F89788DDE
:10212000898D9A8D0E9465196B017C01D4015496AA
:102130006D937D938D939C9357970130110541F5D5
:10214000A301920160E070E0CB010E948118F401CC
:10215000648775878687978729813A814B815C815F
:1021600060E070E0CB010E948118D40150966D931D
:102170007D938D939C935397A701960160E070E047
:10218000CB010E948118F401648B758B868B978B31
:102190002FB7F8948091A7039091A803A091A90369
:1021A000B091AA032FBFF40144A555A566A577A554
:1021B000841B950BA60BB70B80A391A3A2A3B3A37B
:1021C0000F900F900F900F90DF91CF911F910F9173
:1021D000FF90EF90DF90CF90BF90AF909F908F9047
:1021E0007F906F905F904F9008958091AF03811121
:1021F0000DC082E08093AB0384E08093AC03109227
:10220000AE031092AD0381E08093AF038BEA93E0BD
:102210000895362F90E0FC01E65EFD4F4491FC01ED
:10222000E550FE4F2491FC01E452FE4F8491882337
:1022300009F451C04423E1F150E0FA013197EF3045
:10224000F105B0F5EA5AFF4F0C9474189091800094
:102250009F7707C0909180009F7D03C09091800080
:10226000977F9093800024C094B59F7702C094B567
:102270009F7D94BD1DC0909190009F7707C0909165
:1022800090009F7D03C090919000977F9093900065
:102290000FC09091C0009F7703C09091C0009F7DB8
:1022A0009093C00005C09091C200977F9093C200A8
:1022B000E82FF0E0EE0FFF1FE253FE4FA591B4911F
:1022C0008FB7F894EC91311103C020952E2301C0F3
:1022D0002E2B2C938FBF0895CF93DF9390E0FC01BA
:1022E000E550FE4F2491FC01E452FE4F8491882377
:1022F00061F190E0880F991FFC01E054FE4FC591F9
:10230000D491FC01E253FE4FA591B491611109C033
:102310009FB7F8948881209582238883EC912E239F
:102320000BC0623061F49FB7F8943881822F80959A
:1023300083238883EC912E2B2C939FBF06C08FB7ED
:10234000F894E8812E2B28838FBFDF91CF910895D9
:102350003FB7F8948091A3039091A403A091A503A3
:10236000B091A60326B5A89B05C02F3F19F0019692
:10237000A11DB11D3FBFBA2FA92F982F8827820F0B
:10238000911DA11DB11DBC01CD0142E0660F771F5B
:10239000881F991F4A95D1F708958F929F92AF9207
:1023A000BF92CF92DF92EF92FF926B017C010E946D
:1023B000A8114B015C01C114D104E104F104F1F056
:1023C0000E94A811DC01CB0188199909AA09BB094F
:1023D000883E9340A105B10570F321E0C21AD108EF
:1023E000E108F10888EE880E83E0981EA11CB11C5C
:1023F000C114D104E104F10419F7DDCFFF90EF908F
:10240000DF90CF90BF90AF909F908F900895CF9323
:10241000DF93CDB7DEB761970FB6F894DEBF0FBE7E
:10242000CDBF789484B5826084BD84B5816084BD5D
:1024300085B5826085BD85B5816085BD80916E0062
:10244000816080936E001092810080918100826093
:1024500080938100809181008160809381008091D0
:1024600080008160809380008091910082608093E1
:102470009100809191008160809391008091900003
:102480008160809390008091C10084608093C1003E
:102490008091C10082608093C1008091C100816001
:1024A0008093C1008091C30081608093C3008091BC
:1024B000C00082608093C0008091C20081608093E0
:1024C000C20080917A00846080937A0080917A00C3
:1024D000826080937A0080917A00816080937A0094
:1024E00080917A00806880937A0010929F01109208
:1024F0005201109251018091D70081608093D700E2
:1025000080EA8093D80089B5806189BD89B58260F1
:1025100089BD09B400FEFDCF61E070E080E090E08D
:102520000E94CD118091D8008F7C80618093D8006B
:102530008091E000807F8093E0008091E1008E7EBA
:102540008093E1008DE08093E200559A209A5D9897
:102550002898EEEFFFE7859194918B3F9C4D19F4FD
:1025600081E0809350018FEF9FEF9093340280932E
:1025700033021092C0011092C1011092F801109222
:102580001A021092F60181E08093F5011092D001B9
:1025900061E082E00E94091161E083E00E9409117C
:1025A0008091B9008E7F8093B9008091B9008D7FB2
:1025B0008093B90088E48093B80085E48093BC00E0
:1025C0008CE08093B80067E070E08AE093E00E94BE
:1025D000830966E070E084E093E00E94830969E08B
:1025E00070E087E093E00E9483096AE070E081E098
:1025F00093E00E94830961E08EE00E946C1160E02C
:102600008FE00E946C1160E080E10E946C1100E09C
:1026100010E020EF31E440E050E060EF71EC88EC36
:1026200092E00E946C0E00E010E020EF31E440E008
:1026300050E060EF71EC83E892E00E946C0E109223
:10264000BC021092BD021092BE021092BF02109204
:102650007702109278021092790210927A0288EC36
:1026600092E00E94F50783E892E00E94F50787E078
:102670008093C2011092C3011092C4011092C5014F
:1026800020E044E062EC71E089E10E94FE0C8111DF
:10269000F7CF11E0198321E041E0BE016F5F7F4F6A
:1026A0008BE60E94FE0C8111F5CF61E085E70E9468
:1026B00044078111FACF8091C201883629F08CE756
:1026C00091E00E94E206FFCF64E670E080E090E0D7
:1026D0000E94CD1166E08BE30E9444078111FACF7E
:1026E0006091C20170E0762F66278091C301682B4C
:1026F000072E000C880B990B0E940F1A2B013C012E
:1027000060936501709366018093670190936801FF
:102710006091C40170E0762F66278091C501682B17
:10272000072E000C880B990B0E940F1A4B015C01BD
:102730006093690170936A0180936B0190936C01BF
:102740006091C60170E0762F66278091C701682BE3
:10275000072E000C880B990B0E940F1A6B017C014D
:1027600060936D0170936E0180936F01909370017F
:102770009B01AC01C501B4010E9401196A837B83EE
:102780008C839D83A5019401C501B4010E94F31AB5
:102790004B015C01A7019601C701B6010E94F31A23
:1027A0009B01AC01C501B4010E9482180E94661B06
:1027B0009B01AC01C301B20190580E9465190E94AF
:1027C00031196B017C0121EE3EE245E652E46A815B
:1027D0007B818C819D810E94F31A609351037093D9
:1027E0005203809353039093540321EE3EE245E657
:1027F00052E4C701B6010E94F31A60931903709363
:102800001A0380931B0390931C0368EE73E080E02F
:1028100090E00E94CD110CE617E0B8018AE093E049
:102820000E944E09B80184E093E00E944E09B8016D
:1028300087E093E00E944E09B80181E093E00E9496
:102840004E0966E070E080E090E00E94CD110150FA
:102850001109083E83E0180701F768EE73E080E095
:1028600090E00E94CD1168EE73E08AE093E00E9450
:102870004E0964EF71E080E090E00E94CD1168EEB7
:1028800073E087E093E00E944E0964EF71E080E01E
:1028900090E00E94CD1168EE73E084E093E00E9426
:1028A0004E0964EF71E080E090E00E94CD1168EE87
:1028B00073E081E093E00E944E0964EF71E080E0F4
:1028C00090E00E94CD110E94A8116093590170936D
:1028D0005A0180935B0190935C01B0E02B2EB0E035
:1028E0003B2EE4EEF1E08491E82FF0E0EE0FFF1FC5
:1028F000EF56FE4FA591B491E3E0F2E084918C9302
:102900006EE08BE30E9444078111FACF6091C2010F
:1029100070E0762F66278091C301682B072E000C8C
:10292000880B990B0E940F1A6E837F838887998783
:1029300060936501709366018093670190936801CD
:102940006091C40170E0762F66278091C501682BE5
:10295000072E000C880B990B0E940F1A4B015C018B
:102960006093690170936A0180936B0190936C018D
:102970006091C60170E0762F66278091C701682BB1
:10298000072E000C880B990B0E940F1A6B017C011B
:1029900060936D0170936E0180936F01909370014D
:1029A0008091C80190E0982F88272091C901822B3F
:1029B00090935801809357016091CA0170E0762F7F
:1029C00066278091CB01682B072E000C880B990B92
:1029D0000E940F1A6A877B878C879D8760936101AD
:1029E0007093620180936301909364016091CC01C4
:1029F00070E0762F66278091CD01682B072E000CA2
:102A0000880B990B0E940F1A6E877F87888B998B92
:102A100060935D0170935E0180935F01909360010C
:102A20006091CE0170E0762F66278091CF01682BF0
:102A3000072E000C880B990B0E940F1A609353010C
:102A40007093540180935501909356010E94A811F0
:102A50000091590110915A0120915B0130915C0164
:102A6000601B710B820B930B0E940D1A20E034E265
:102A700044E759E40E9465196A837B838C839D83B4
:102A80006093790170937A0180937B0190937C012C
:102A90000E94A8116093590170935A0180935B01C1
:102AA00090935C01A7019601C501B4010E94011930
:102AB00021EE3EE245E652E40E94F31A2B013C016E
:102AC000609391017093920180939301909394018C
:102AD000A5019401C501B4010E94F31A4B015C01E8
:102AE000A7019601C701B6010E94F31A9B01AC0130
:102AF000C501B4010E9482180E94661B9B01AC01B3
:102B00006E817F818885998590580E9465190E9401
:102B1000311921EE3EE245E652E40E94F31A6E833B
:102B20007F838887998760938D0170938E0180934E
:102B30008F019093900120E030E043E053E46A85F8
:102B40007B858C859D850E9465196A877B878C872C
:102B50009D876093750170937601809377019093C0
:102B6000780120E030E043E053E46E857F8588897A
:102B700099890E9465194B015C0160937101709302
:102B80007201809373019093740120E030E044EB74
:102B900052ECC301B2010E94601987FF10C020E00F
:102BA00030E044EB52E46091990170919A01809178
:102BB0009B0190919C010E94E61A1816D4F020E027
:102BC00030E044EB52E4C301B2010E94E61A181649
:102BD0000CF520E030E044EB52EC609199017091EB
:102BE0009A0180919B0190919C010E94601987FF3E
:102BF00011C040925103509252036092530370925D
:102C000054034092990150929A0160929B017092F4
:102C10009C0116C0CA80DB80EC80FD800A851B8584
:102C20002C853D85B301A20185E493E00E94A00AB2
:102C30006093990170939A0180939B0190939C01FA
:102C40004090990150909A0160909B0170909C0176
:102C500020E030E0A901C301B2010E94E61A181673
:102C60005CF420E030E044EB52E4C301B2010E9486
:102C7000E61A18165CF016C020E030E044EB52EC87
:102C8000C301B2010E94601987FF0CC0B7FAB0946B
:102C9000B7F8B0948092710190927201A092730182
:102CA000B092740100917101109172012091730131
:102CB00030917401CA80DB80EC80FD804E815F81A1
:102CC000688579858DE093E00E94A00A6093950164
:102CD00070939601809397019093980193018201DC
:102CE00030580093C4021093C5022093C60230935B
:102CF000C702DC01CB01B05880937F029093800221
:102D0000A0938102B093820242E0C301B2010E940B
:102D1000400887E391E00E94CA066091910170919A
:102D20009201809193019091940142E00E944008A9
:102D300087E391E00E94CA06609195017091960127
:102D4000809197019091980142E00E94400887E3AA
:102D500091E00E94CA0660918D0170918E01809170
:102D60008F019091900142E00E94400887E391E03A
:102D70000E94CA0688EC92E00E94EC0E83E892E082
:102D80000E94EC0E8090C0029090C102A090C202FE
:102D9000B090C30220E030E040E252E4C501B4014B
:102DA0000E9482180E94D7196B017C0170938C01DC
:102DB00060938B0140907B0250907C0260907D027A
:102DC00070907E02A301920160E070E080E292E4E4
:102DD0000E9481180E94D7196A837B838C839D830C
:102DE0008A819B8190938A018093890120E030E061
:102DF00040E252E4C301B2010E9482180E94D71936
:102E00002B013C017093880160938701A501940117
:102E100060E070E080E292E40E9481180E94D7197D
:102E20004B015C017093860160938501D60128EE09
:102E300033E00E947A1822E830E040E050E00E943F
:102E4000C91BDA01C90188519C4FAF4FBF4F8E8318
:102E50009F83A887B9879093840180938301AA8177
:102E6000BB8128EE33E00E947A1822E830E040E08F
:102E700050E00E94C91B69017A0198EEC90E93E0E7
:102E8000D91EE11CF11CD0928201C0928101D201B5
:102E900028EE33E00E947A1822E830E040E050E06B
:102EA0000E94C91B29013A01A8EE4A0EA3E05A1E4E
:102EB000611C711C5092800140927F01D40128EE68
:102EC00033E00E947A1822E830E040E050E00E94AF
:102ED000C91B49015A01B8EE8B0EB3E09B1EA11C21
:102EE000B11C90927E0180927D016E817F818AE08B
:102EF00093E00E944E09B60184E093E00E944E09DF
:102F0000B20187E093E00E944E09B40181E093E0B2
:102F10000E944E0989E391E00E94CA0621143104FF
:102F200009F4DFCC0E940000DCCCAF92BF92CF92BC
:102F3000DF92EF92FF920F931F93CF93DF93EBE11A
:102F4000F2E01382128288EE93E0A0E0B0E0848386
:102F50009583A683B7832BE131E031832083E7E2B9
:102F6000F2E01382128284839583A683B7838BE277
:102F700091E0918380838FEF9FEF95878487E5E4CD
:102F8000F3E00FE612E123E83AE3008311832283A2
:102F9000338346EA5BE964E47BE3448355836683D9
:102FA00077838FE892ECA5EFBCE380879187A287B7
:102FB000B3871486158616861786108A118A128A98
:102FC000138A108E118E128E138E148E158E168EFD
:102FD000178E10A211A212A213A214A215A216A259
:102FE00017A2EDE0F3E0008311832283338344834F
:102FF00055836683778380879187A287B3871486FA
:10300000158616861786108A118A128A138A108EE0
:10301000118E128E138E148E158E168E178E10A290
:1030200011A212A213A214A215A216A217A28AE03C
:1030300093E00E94510687E093E00E94510684E0ED
:1030400093E00E94510681E093E00E9451061F9296
:103050001F92DEE3DF93C0E8CF931F921F928DECA7
:10306000A82E8CECB82E8CE4C82E8DE3D82EE12C43
:10307000F12C00E81FE32CEB32E040EC52E064EC72
:1030800072E088EC92E00E9406101F921F92DF937C
:10309000CF931F921F9227E732E04BE752E06FE792
:1030A00072E083E892E00E9406108DB79EB70C96FE
:1030B0000FB6F8949EBF0FBE8DBFDF91CF911F91C9
:1030C0000F91FF90EF90DF90CF90BF90AF90089559
:1030D000991B79E004C0991F961708F0961B881F6A
:1030E0007A95C9F780950895EE0FFF1F0590F4912A
:1030F000E02D09940E940A1CB7FF0895821B930BD0
:1031000008955058BB27AA270E9499180C94AC1A0E
:103110000E949E1A38F00E94A51A20F039F49F3FB1
:1031200019F426F40C94741A0EF4E095E7FB0C9451
:103130006E1AE92F0E94BD1A58F3BA176207730777
:103140008407950720F079F4A6F50C94DF1A0EF4A5
:10315000E0950B2EBA2FA02D0B01B90190010C01A7
:10316000CA01A0011124FF27591B99F0593F50F4BF
:10317000503E68F11A16F040A22F232F342F442717
:10318000585FF3CF469537952795A795F04053950F
:10319000C9F77EF41F16BA0B620B730B840BBAF0DF
:1031A0009150A1F0FF0FBB1F661F771F881FC2F74A
:1031B0000EC0BA0F621F731F841F48F4879577955E
:1031C0006795B795F7959E3F08F0B0CF9395880F18
:1031D00008F09927EE0F9795879508950E949E1AFB
:1031E00060F080E891E009F49EEF0E94A51A28F0B3
:1031F00040E851E071F45EEF0CC00C94741A0C942A
:10320000DF1AE92FE0780E94BD1A40F3092E052A43
:10321000B1F3261737074807590738F00E2E07F87D
:10322000E02569F0E025E0640AC0EF6307F8009448
:1032300007FADB01B9019D01DC01CA01AD01EF9381
:103240000E947C190E94AC1A0E9431195F9155238B
:1032500039F02BED3FE049E450FD49EC0C94821825
:103260000895DF93DD27B92FBF7740E85FE3161697
:10327000170648075B0718F4D92F0E94EB1A9F9393
:103280008F937F936F930E94A61BEAECF0E00E945D
:10329000771A0E94AC1A2F913F914F915F910E9433
:1032A000061BDD2351F09058A2EA2AED3FE049ECDD
:1032B0005FE3D0785D270E949918DF910C94AC1AD7
:1032C0000E944A1A08F481E008950E9479190C942A
:1032D000AC1A0E94A51A58F00E949E1A40F029F4D8
:1032E0005F3F29F00C946E1A51110C94E01A0C9463
:1032F000741A0E94BD1A68F39923B1F3552391F310
:10330000951B550BBB27AA2762177307840738F054
:103310009F5F5F4F220F331F441FAA1FA9F335D0B1
:103320000E2E3AF0E0E832D091505040E695001C65
:10333000CAF72BD0FE2F29D0660F771F881FBB1F1F
:10334000261737074807AB07B0E809F0BB0B802DFD
:10335000BF01FF2793585F4F3AF09E3F510578F029
:103360000C946E1A0C94E01A5F3FE4F3983ED4F389
:10337000869577956795B795F7959F5FC9F7880FFD
:10338000911D9695879597F90895E1E0660F771F4F
:10339000881FBB1F621773078407BA0720F0621BE0
:1033A000730B840BBA0BEE1F88F7E09508950E940B
:1033B000DE196894B1110C94E01A08950E94C51AA0
:1033C00088F09F5798F0B92F9927B751B0F0E1F0E6
:1033D000660F771F881F991F1AF0BA95C9F714C096
:1033E000B13091F00E94DF1AB1E008950C94DF1A19
:1033F000672F782F8827B85F39F0B93FCCF38695CF
:1034000077956795B395D9F73EF49095809570952B
:1034100061957F4F8F4F9F4F0895E89409C097FBA8
:103420003EF490958095709561957F4F8F4F9F4F9B
:103430009923A9F0F92F96E9BB279395F6958795DF
:1034400077956795B795F111F8CFFAF4BB0F11F4A2
:1034500060FF1BC06F5F7F4F8F4F9F4F16C0882349
:1034600011F096E911C0772321F09EE8872F762F7F
:1034700005C0662371F096E8862F70E060E02AF0C0
:103480009A95660F771F881FDAF7880F96958795AC
:1034900097F90895990F0008550FAA0BE0E8FEEF81
:1034A00016161706E807F907C0F012161306E40708
:1034B000F50798F0621B730B840B950B39F40A2601
:1034C00061F0232B242B252B21F408950A2609F4DF
:1034D000A140A6958FEF811D811D089597F99F67E3
:1034E00080E870E060E008959FEF80EC0895DF933E
:1034F000CF931F930F93FF92EF92DF927B018C018A
:10350000689406C0DA2EEF010E94061BFE01E894C3
:10351000A5912591359145915591A6F3EF010E9412
:103520009918FE019701A801DA9469F7DF90EF90EE
:10353000FF900F911F91CF91DF91089500240A947D
:103540001616170618060906089500240A9412167E
:103550001306140605060895092E0394000C11F4B1
:10356000882352F0BB0F40F4BF2B11F460FF04C05E
:103570006F5F7F4F8F4F9F4F089557FD9058440FB7
:10358000551F59F05F3F71F04795880F97FB991FC2
:1035900061F09F3F79F0879508951216130614067F
:1035A000551FF2CF4695F1DF08C01616170618060C
:1035B000991FF1CF86957105610508940895E894E7
:1035C000BB2766277727CB0197F908950E944A1AEF
:1035D00008F48FEF08959B01AC0160E070E080E893
:1035E0009FE30C9465190E94061B0C94AC1A0E9470
:1035F0009E1A38F00E94A51A20F0952311F00C9421
:103600006E1A0C94741A11240C94E01A0E94BD1ABC
:1036100070F3959FC1F3950F50E0551F629FF00125
:10362000729FBB27F00DB11D639FAA27F00DB11D3E
:10363000AA1F649F6627B00DA11D661F829F2227C7
:10364000B00DA11D621F739FB00DA11D621F839F4E
:10365000A00D611D221F749F3327A00D611D231F24
:10366000849F600D211D822F762F6A2F11249F5772
:1036700050409AF0F1F088234AF0EE0FFF1FBB1F75
:10368000661F771F881F91505040A9F79E3F510534
:1036900080F00C946E1A0C94E01A5F3FE4F3983EAD
:1036A000D4F3869577956795B795F795E7959F5FDE
:1036B000C1F7FE2B880F911D9695879597F9089570
:1036C00019F416F40C94741A0C94AF1B0E94C51ACA
:1036D000B8F39923C9F3B6F39F57550B87FF0E94A0
:1036E000BD1B0024A0E640EA9001805856959795AE
:1036F00028F4805C660F771F881F20F02617370795
:10370000480730F4621B730B840B202931294A2BA4
:10371000A69517940794202531254A2758F7660F58
:10372000771F881F20F026173707480730F4620BF1
:10373000730B840B200D311D411DA09581F7B9013C
:10374000842F9158880F9695879508959B01AC0119
:103750000C94F31A0E944A1A880B990B08959F3F04
:1037600031F0915020F4879577956795B795880F3C
:10377000911D9695879597F9089591505040660F41
:10378000771F881FD2F7089581E090E0F8940C9499
:10379000191C052E97FB1EF400940E94E01B57FD98
:1037A00007D00E94E81B07FC03D04EF40C94E01BEA
:1037B00050954095309521953F4F4F4F5F4F08955D
:1037C00090958095709561957F4F8F4F9F4F08958D
:1037D000A1E21A2EAA1BBB1BFD010DC0AA1FBB1F15
:1037E000EE1FFF1FA217B307E407F50720F0A21B87
:1037F000B30BE40BF50B661F771F881F991F1A94F4
:1038000069F760957095809590959B01AC01BD011D
:10381000CF010895A29FB001B39FC001A39F700D77
:10382000811D1124911DB29F700D811D1124911DC8
:063830000895F894FFCF9B
:10383600FFFFFFFF00E100000000000001000000A4
:1038460000C1808100000000000000CF0C9F0C9793
:103856000C830C740C730C000000001B0256023C17
:10386600023A031603310209000D0A006E616E006A
:08387600696E66006F766600C2
:00000001FF
